:100000000C946A000C9487000C9487000C94870071
:100010000C9487000C9487000C9487000C947C014E
:100020000C9487000C9487000C9487000C94870034
:100030000C9487000C9487000C9487000C94870024
:100040000C9487000C9487000C9487000C94870014
:100050000C9487000C9487000C9487000C94870004
:100060000C9487000C9487000C9487000C94A101D9
:100070000C94E6010C9487000C9487000E11131564
:1000800019110E00040C140404041F000E110102C7
:1000900004081F001F02040201110E0002060A12CA
:1000A0001F0202001F101E0101110E000608101E83
:1000B00011110E001F010204080808000E11110E94
:1000C00011110E000E11110F01020C0000000000B2
:1000D0000000000011241FBECFEFCDBFDFE3DEBF65
:1000E00018E3A0E0B8E3ECEBFAE002C005900D9253
:1000F000A030B107D9F728E3A0E0B8E301C01D9212
:10010000AF34B207E1F70E9416010C944C050C9431
:100110000000249A2C980895EF93FF938F939F9358
:10012000E0E6F0E088ED90E084BF908390E084BF4B
:1001300091839F918F91FF91EF910895CF93DF93DA
:10014000CDB7DEB710920538109206388091063888
:10015000882F90E020910638222F30E02456354732
:10016000F9012081855F974CFC012083809106383E
:100170008F5F809306388A3048F380910638882F45
:1001800090E0855F974C2BE3FC01208380E098E0B2
:100190002AE3FC01228380E098E020E038E0F901C6
:1001A00025812062FC0125830000DF91CF91089515
:1001B000CF93DF93CDB7DEB7109205381092063893
:1001C00080910638882F90E020910638222F30E069
:1001D0002A553547F9012081855F974CFC01208322
:1001E000809106388F5F80930638803148F3809184
:1001F000063891E0980F90930638882F90E0855F3D
:10020000974C2BE3FC01208380E098E02AE3FC017B
:10021000228380E098E020E038E0F9012581206227
:10022000FC0125830000DF91CF910895CF93DF93E8
:1002300000D0CDB7DEB70E9443040E9489000E941F
:100240008C000E9462040E947C030E9425020E948E
:100250009A020E9420040E94E4037894809100385E
:100260008823B9F00E94550480910138909102389A
:100270009C012F5F3F4F209301383093023867E095
:1002800078E30E94780487E098E30E94DA021092F3
:10029000003880910438882309F380910338853031
:1002A00031F581E089831A828A81882F90E0815D0F
:1002B000974CFC0120818A81882F90E08A549547D1
:1002C000FC018081281709F019828981882331F087
:1002D0008A818F5F8A838A81853030F38981882380
:1002E00019F00E949E0005C00E94D80002C00E9422
:1002F000D80010920438B2CF1F920F9200903F00A6
:100300000F9211242F938F939F93EF93FF93CF938B
:10031000DF93CDB7DEB780E491E021E0FC01238BD1
:1003200081E0809300380000DF91CF91FF91EF9141
:100330009F918F912F910F9000923F000F901F90EF
:1003400018951F920F9200903F000F9211242F9347
:100350008F939F93EF93FF93CF93DF931F92CDB72C
:10036000DEB780E098E0FC018081898389818A334F
:1003700019F4109203381BC089818B3321F481E07A
:100380008093043814C0809103388F3170F48091C9
:10039000033891E0980F90930338882F90E0815DA7
:1003A000974C2981FC01208302C010920338000081
:1003B0000F90DF91CF91FF91EF919F918F912F91AE
:1003C0000F9000923F000F901F9018951F920F9270
:1003D00000903F000F9211242F933F938F939F9390
:1003E000EF93FF93CF93DF93CDB7DEB790910538AE
:1003F00080910638981788F480E098E020910538BD
:1004000031E0320F30930538222F30E0255F374C32
:10041000F9012081FC01228309C080E098E020E0FE
:1004200038E0F90125812F7DFC0125830000DF9153
:10043000CF91FF91EF919F918F913F912F910F90CD
:1004400000923F000F901F901895CF93DF93CDB788
:10045000DEB72897CDBFDEBF89E08F838F818D8384
:100460008D818B838B818983188688858E838E818D
:100470008C838C818A8368E0CE0101960E94A6035A
:100480008AE08F838F818D838D818B838B8189839C
:1004900088E0888788858E838E818C838C818A838F
:1004A00068E0CE0101960E94A6038BE08F838F81C6
:1004B0008D838D818B838B81898387E08887888575
:1004C0008E838E818C838C818A8368E0CE01019635
:1004D0000E94A6038CE08F838F818D838D818B8317
:1004E0008B81898381E0888788858E838E818C8348
:1004F0008C818A8368E0CE0101960E94A6038FE07A
:100500008F838F818D838D818B838B8189831886E7
:1005100088858E838E818C838C818A8368E0CE016E
:1005200001960E94A60300002896CDBFDEBFDF9192
:10053000CF910895CF93DF93CDB7DEB72997CDBF85
:10054000DEBF81E0898318C08981888788858E8392
:100550008E818C838C818A8385E5898789858F83C9
:100560008F818D838D818B83CE01029668E00E94FE
:10057000A60389818F5F89838981893028F389E087
:10058000888788858E838E818C838C818A83198667
:1005900089858F838F818D838D818B83CE01029698
:1005A00068E00E94A60300002996CDBFDEBFDF9160
:1005B000CF910895CF93DF93CDB7DEB76297CDBFCC
:1005C000DEBF898B9A8B19828CC089818F5F8F8760
:1005D0008F858D878D858B878B8589871A8275C0DE
:1005E0008A81882F90E029893A89820F931FFC0124
:1005F0008081803308F43CC08A81882F90E029896B
:100600003A89820F931FFC0180818A3388F58A81A1
:10061000882F90E0880F991F01962A81222F30E0C1
:1006200049895A89240F351FF9012081222F30E092
:10063000A901405351092981222F30E0440F551F51
:10064000440F551F440F551F240F351F24583F4F8B
:100650002B833C832B813C81F90124912D834D8197
:100660009E01275F3F4F820F931FFC0140832AC0EA
:100670008A81882F90E0880F991F019629893A89ED
:10068000265F3F4FF9012081422F50E02981222F20
:1006900030E0440F551F440F551F440F551F240FC2
:1006A000351F24583F4F2E833F832E813F81F90110
:1006B0002491288748859E01275F3F4F820F931F13
:1006C000FC0140838A818F5F8A838A81843008F4A9
:1006D00087CFCE01099668E00E94A60389818F5FCB
:1006E00089838981883008F470CF00006296CDBF7D
:1006F000DEBFDF91CF910895CF93DF93CDB7DEB703
:1007000080E092E024E0FC01218380E494E02DE18C
:10071000FC01218380E494E028E1FC01258380E250
:1007200098E026E2FC01208380E298E024E0FC01CE
:10073000218380E298E020E238E0F9012081216005
:10074000FC0120830000DF91CF910895CF93DF93C8
:1007500000D01F92CDB7DEB789839A836B8380E484
:1007600094E028E1FC01268380E298E020E238E072
:10077000F90123812F77FC01238314C020E238E0A4
:1007800089819A81AC014F5F5F4F49835A83FC0195
:100790008081F9018483000080E298E0FC0183817C
:1007A0008823D4F78B819FEF980F9B83882331F7A1
:1007B00080E494E028E1FC01258300002396CDBF6E
:1007C000DEBFDF91CF910895CF93DF93CDB7DEB732
:1007D00080E094E026E0FC01218380E094E0FC01CD
:1007E000118A80E094E0FC01128A80E092E020E02F
:1007F00032E0F90121812061FC01218380E198E050
:1008000021E0FC01228380E198E02CE1FC012083BF
:1008100080E198E02FE5FC01268380E198E028E064
:10082000FC01248380E198E021E0FC01238380E146
:1008300098E021E0FC0125830000DF91CF9108952D
:10084000CF93DF93CDB7DEB780E294E024E0FC01E4
:10085000218380E098E020E8FC01258380E098E097
:1008600020ECFC01268380E098E023E0FC01278354
:1008700080E098E02DE830E2FC012087318700001D
:10088000DF91CF910895CF93DF93CDB7DEB780E2AC
:1008900094E020E2FC01228380E294E028E0FC0165
:1008A000258B0000DF91CF910895CF93DF93CDB7D3
:1008B000DEB780E294E020E1FC0127830000DF91B5
:1008C000CF910895CF93DF93CDB7DEB780E491E069
:1008D000FC01178280E491E021E0FC01228B80E49E
:1008E00091E021E7FC01208B0000DF91CF9108957A
:1008F000CF93DF93CDB7DEB72697CDBFDEBF8B8317
:100900009C836D837E838B819C818031974228F00C
:100910008FE097E289839A8304C08B819C818983CD
:100920009A8389819A8196958795969587959695CC
:1009300087959C01A5ECB0E20E943D0592958295B9
:100940008F7089279F70892720E3280F8D819E81D2
:10095000FC01208349815A81CA0196958795969515
:100960008795969587959C01A5ECB0E20E943D0580
:10097000BC01729562956F7067277F70672728EEBC
:1009800033E0629FC001639F900D729F900D112410
:100990009A01281B390BC90189839A838D819E8115
:1009A000AC014F5F5F4F89819A81969587959695A7
:1009B00087959C01ABE7B4E10E943D05969587952C
:1009C000805DFA01808349815A81CA019695879595
:1009D000969587959C01ABE7B4E10E943D059C018B
:1009E0003695279564E6629FC001639F900D1124A0
:1009F0009A01281B390BC90189839A838D819E81B5
:100A0000AC014E5F5F4F89819A819C01ADECBCECDB
:100A10000E943D059695879596958795969587951D
:100A2000805DFA01808349815A819A01ADECBCEC6A
:100A30000E943D05969587959695879596958795FD
:100A4000880F991F9C01220F331F220F331F820F23
:100A5000931F9A01281B390BC90189839A838D81C1
:100A60009E8103962981205DFC012083000026964B
:100A7000CDBFDEBFDF91CF910895A29FB001B39F9C
:100A8000C001A39F700D811D1124911DB29F700D97
:0C0A9000811D1124911D0895F894FFCFE2
:100A9C0057652772652045695400556E6B6E6F77EC
:100AAC006E20636F6D6D616E64002A49444E3F0089
:00000001FF
