S00D00007069776B6F2E73726563ED
S11300000C943E000C9450000C9450000C9450003E
S11300100C9450000C9450000C9450000C9428053F
S11300200C9450000C9450000C9450000C9450000C
S11300300C9450000C9450000C9450000C945000FC
S11300400C9450000C9450000C9450000C945000EC
S11300500C944D050C9450000C9450000C945000DA
S11300600C9450000C9450000C9450000C945000CC
S11300700C9450000C9450000C94500011241FBE9A
S1130080CFEFCDBFDFE3DEBF28E3A0E0B8E301C0DC
S11300901D92A730B207E1F70E94E6040C945E09B2
S11300A00C940000249A2C980895EF93FF938F9357
S11300B09F93E0E6F0E088ED90E084BF908390E0C9
S11300C084BF91839F918F91FF91EF910895CF9376
S11300D0DF93CDB7DEB780E096E021E0FC0120831A
S11300E080E096E026E0FC01218380E096E027E5AD
S11300F0FC01228380E096E027EBFC01238380E06F
S113010096E0FC01148280E096E0FC01158280E018
S113011096E026E0FC01268380E096E021E0FC01E5
S113012022870000DF91CF910895CF93DF93CDB75D
S1130130DEB780E096E021E0FC0120870000DF913B
S1130140CF910895CF93DF9300D0CDB7DEB780E190
S113015098E02FE9FC012783000080E198E0FC018E
S113016085818823D4F780E198E0FC0180858A8327
S113017080E198E020E138E0F90125812068FC0164
S1130180258380E198E022E0FC012483000080E1E3
S113019098E0FC0185818823D4F780E198E0FC0194
S11301A08085898380E198E020E138E0F9012581A8
S11301B02068FC01258380E198E027E0FC0124838A
S11301C089819A81CC01A0E0B0E0BC01CD010E94FC
S11301D02B08DC01CB0120E030E040E853E4BC0113
S11301E0CD010E948A07DC01CB01BC01CD010F9037
S11301F00F90DF91CF910895CF93DF931F92CDB7E6
S1130200DEB7898389818F3060F48981882F90E0FB
S1130210880F991F880F991F880F991F80549D4636
S113022002C080E193E90F90DF91CF910895CF93BD
S1130230DF93CDB7DEB72597CDBFDEBF8A839B831F
S11302406C837D83198215C08981882F90E02A816F
S11302503B81820F931F2981222F30E04C815D81E5
S1130260240F351FF9012081FC01208389818F5FD0
S113027089838981883040F300002596CDBFDEBF95
S1130280DF91CF910895CF93DF9300D01F92CDB724
S1130290DEB789836A837B8389810E94FC009C0189
S11302A08A819B81B9010E9417018A819B810796EB
S11302B02A813B81295F3F4FF90120812360FC01A2
S11302C0208300002396CDBFDEBFDF91CF91089538
S11302D00F931F93CF93DF93CDB7DEB72B97CDBF8B
S11302E0DEBF8A839B836C837D834E835F832887F1
S11302F039870A871B8719825FC08981882F90E01C
S1130300880F991F880F991F2A853B85B901680FAB
S1130310791F8981882F90E02A813B81820F931F66
S1130320FC018081882F90E0A0E0B0E0582F4427A2
S1130330332722278981882F90E0EC81FD818E0F5D
S11303409F1FFC018081882F90E0A0E0B0E0DC01D9
S113035099278827282B392B4A2B5B2B8981882FB7
S113036090E0EE81FF818E0F9F1FFC018081882F1A
S113037090E0A0E0B0E0BA2FA92F982F8827282B6F
S1130380392B4A2B5B2B8981882F90E0E885F985EE
S11303908E0F9F1FFC018081882F90E0A0E0B0E0C9
S11303A0822B932BA42BB52BFB0180839183A283F7
S11303B0B38389818F5F89838981883008F49DCFD5
S11303C000002B96CDBFDEBFDF91CF911F910F911F
S11303D00895AF92BF92CF92DF92EF92FF920F9364
S11303E01F93CF93DF93CDB7DEB72697CDBFDEBF84
S11303F089836A834B832C830D831E838C810E94A3
S1130400FC005C018B810E94FC006C018A810E94CB
S1130410FC007C0189810E94FC00FC018D819E818D
S11304208C019501A601B701CF010E94680100006B
S11304302696CDBFDEBFDF91CF911F910F91FF9024
S1130440EF90DF90CF90BF90AF900895CF93DF935C
S1130450CDB7DEB76197CDBFDEBF8E879F87688B30
S1130460498B198270C01A821B821C821D82898169
S1130470282F30E08989882F90E0820F931F0897F6
S1130480CCF48981282F30E08989882F90E0820F6D
S1130490931F880F991F880F991F2E853F85820F00
S11304A0931FFC0180819181A281B3818A839B8304
S11304B0AC83BD8388898032B0F48889882F90E02A
S11304C020E230E0281B390B8A819B81AC81BD81FD
S11304D004C0B695A795979587952A95D2F78A83F0
S11304E09B83AC83BD8389818F5F8E838A819B814B
S11304F0AC81BD818B2F9927AA27BB278F83898144
S11305008F5F88878A819B81AC81BD81CD01AA27B9
S1130510BB27898789818F5F8A878A819B81AC8188
S1130520BD81892F9A2FAB2FBB278B8789818F5F42
S11305308C878A818D87CE01069668E00E943A06F0
S113054089818F5F89838981883008F48CCF00008A
S11305506196CDBFDEBFDF91CF910895CF93DF9336
S1130560CDB7DEB72697CDBFDEBF8D839E8381E0F6
S113057089830DC08D819E8140E069810E9426029D
S113058086E990E00E94F30689818F5F89838981DF
S1130590813280F31A8207C082E390E00E94F3065E
S11305A08A818F5F8A838A818233B0F381E08B836F
S11305B00DC08D819E814B8160E20E94260288ECF1
S11305C090E00E94F3068B818F5F8B838B8189304F
S11305D080F31C8207C082E390E00E94F3068C81C2
S11305E08F5F8C838C818A30B0F300002696CDBF58
S11305F0DEBFDF91CF9108950F931F93CF93DF93C5
S1130600CDB7DEB7EB97CDBFDEBF68AF79AF8AAFAA
S11306109BAF88E393E98F83988728AD39AD4AADC2
S11306205BAD68AD79AD8AAD9BAD0E94850788232B
S1130630C1F42DEC3CEC47EC52E468AD79AD8AADE5
S11306409BAD0E94DD08181664F026E636E64EE1FE
S113065051EC68AD79AD8AAD9BAD0E9485078823C6
S113066074F4CE0140968C012BE04BE06BE08BE000
S11306700E94E901CE0140960E94AE0237C120E0FB
S113068030E0A90168AD79AD8AAD9BAD0E948507C4
S113069088230CF076C088AD99ADAAADBBADB05837
S11306A020E030E040E251E4BC01CD010E94E208C8
S11306B0DC01CB0120E030E040E05FE3BC01CD0190
S11306C00E941907DC01CB01BC01CD010E94FC078B
S11306D0DC01CB0189879A878BE00E94FC00898327
S11306E09A8389859A859C01ADECBCEC0E944F09E4
S11306F0AC015695479556954795569547959A0159
S1130700ADECBCEC0E944F0996958795969587951C
S113071096958795880F991F9C01220F331F220FEE
S1130720331F820F931F9A01281B390BC901282FED
S1130730CE01C096BC01822F0E944301CE01C09617
S11307408B839C8349855A859A01ADECBCEC0E944D
S11307504F09969587959695879596958795880FD1
S1130760991F9C01220F331F220F331F820F931FE7
S11307709A01281B390BC9010E94FC008D839E83BA
S1130780A4C020E030E040E251E468AD79AD8AAD28
S11307909BAD0E94E208DC01CB0120E030E040E0A8
S11307A05FE3BC01CD010E941907DC01CB01BC0150
S11307B0CD010E94FC07DC01CB018B879C878B85D4
S11307C09C8596958795969587959C01ABE7B4E1B2
S11307D00E944F09AC01569547959A01ADECBCECCB
S11307E00E944F0996958795969587959695879536
S11307F0880F991F9C01220F331F220F331F820F72
S1130800931F9A01281B390BC9018D878B859C8501
S11308109C01ADECBCEC0E944F09AC015695479588
S113082056954795569547959A01ADECBCEC0E94B8
S11308304F09969587959695879596958795880FF0
S1130840991F9C01220F331F220F331F820F931F06
S11308509A01281B390BC9018E874B855C859A0147
S1130860ADECBCEC0E944F099695879596958795BB
S113087096958795880F991F9C01220F331F220F8D
S1130880331F820F931F9A01281B390BC9018F87CD
S11308908B859C858436910520F08D850E94FC0013
S11308A003C08AE00E94FC0089839A83CE01C0962B
S11308B0BC018E850E944301CE01C0968B839C832C
S11308C08F850E94FC008D839E83FE0170962F818C
S11308D038854D815E816B817C8189819A818F010C
S11308E00E946801CE0140960E94AE02EB96CDBFF5
S11308F0DEBFDF91CF911F910F910895CF92DF92C8
S1130900EF92FF920F931F93CF93DF93CDB7DEB790
S1130910A097CDBFDEBF8AE00E94FC006C018AE094
S11309200E94FC007C018AE00E94FC00FC01CE01D4
S113093001968C019601A70160E473E9CF010E943E
S11309406801CE0101960E94AE020000A096CDBFC0
S1130950DEBFDF91CF911F910F91FF90EF90DF9059
S1130960CF900895CF92DF92EF92FF920F931F934F
S1130970CF93DF93CDB7DEB7A097CDBFDEBF8AE0BC
S11309800E94FC006C018AE00E94FC007C018AE069
S11309900E94FC00FC01CE0101968C019601A70186
S11309A068E473E9CF010E946801CE0101960E94B8
S11309B0AE020000A096CDBFDEBFDF91CF911F91A4
S11309C00F91FF90EF90DF90CF900895CF93DF9336
S11309D0CDB7DEB70E94BE060E9452000E945500A9
S11309E00E94DD060E9467000E9406060E947A05A6
S11309F00E94DB050E94820678940E9495000E9462
S1130A00D0060E94A200DC01CB01809303389093AE
S1130A100438A0930538B093063880910338909138
S1130A200438A0910538B0910638BC01CD010E946C
S1130A30FC0280910138909102388436910518F4B3
S1130A400E947E0402C00E94B2040E949500D7CF87
S1130A501F920F9200903F000F9211242F938F93B7
S1130A609F93EF93FF93CF93DF93CDB7DEB780E4EB
S1130A7091E021E0FC01238B81E0809300380000A9
S1130A80DF91CF91FF91EF919F918F912F910F90D3
S1130A9000923F000F901F9018951F920F920090A4
S1130AA03F000F9211248F939F93EF93FF93CF9363
S1130AB0DF93CDB7DEB780E096E0FC0180899189B1
S1130AC00024880F991F001C880F991F001C892F70
S1130AD0902D80930138909302380000DF91CF91DC
S1130AE0FF91EF919F918F910F9000923F000F9093
S1130AF01F901895CF93DF93CDB7DEB72897CDBF5E
S1130B00DEBF89E08F838F818D838D818B838B8181
S1130B108983188688858E838E818C838C818A83D1
S1130B2068E0CE0101960E943A068AE08F838F81A5
S1130B308D838D818B838B81898388E088878885E9
S1130B408E838E818C838C818A8368E0CE010196AA
S1130B500E943A068BE08F838F818D838D818B83F6
S1130B608B81898387E0888788858E838E818C83B7
S1130B708C818A8368E0CE0101960E943A068CE05B
S1130B808F838F818D838D818B838B81898381E09A
S1130B90888788858E838E818C838C818A8368E0A4
S1130BA0CE0101960E943A0600002896CDBFDEBF12
S1130BB0DF91CF910895CF93DF93CDB7DEB7299717
S1130BC0CDBFDEBF81E0898317C08981888788858E
S1130BD08E838E818C838C818A83198689858F8309
S1130BE08F818D838D818B83CE01029668E00E9474
S1130BF03A0689818F5F89838981893030F30000C7
S1130C002996CDBFDEBFDF91CF910895CF93DF93B7
S1130C10CDB7DEB780E092E024E0FC01218380E4DC
S1130C2094E025E1FC01218380E494E028E1FC01C7
S1130C30258380E094E028E0FC01218380E094E0B7
S1130C4028E0FC01258380E298E026E2FC01208371
S1130C5080E298E024E0FC01218380E298E020E235
S1130C6038E0F90120812160FC0120830000DF913C
S1130C70CF910895CF93DF9300D01F92CDB7DEB705
S1130C8089839A836B8380E494E020E1FC012683CA
S1130C9080E094E028E0FC01268380E298E020E2F2
S1130CA038E0F90123812F77FC01238314C020E26B
S1130CB038E089819A81AC014F5F5F4F49835A8341
S1130CC0FC018081F9018483000080E298E0FC014A
S1130CD083818823D1F38B819FEF980F9B83882393
S1130CE031F780E494E020E1FC01258380E094E086
S1130CF028E0FC01258300002396CDBFDEBFDF91F1
S1130D00CF910895CF93DF93CDB7DEB780E094E021
S1130D1026E0FC01218380E094E0FC01118A80E05C
S1130D2094E0FC01128A80E092E020E032E0F901D4
S1130D3021812061FC01218380E198E021E0FC0114
S1130D40228380E198E02CE1FC01208380E198E09B
S1130D502FE5FC01268380E198E028E0FC01248350
S1130D6080E198E021E0FC01238380E198E021E028
S1130D70FC0125830000DF91CF910895CF93DF9389
S1130D80CDB7DEB780E294E020E2FC01228380E26A
S1130D9094E028E0FC01258B0000DF91CF910895B9
S1130DA0CF93DF93CDB7DEB780E294E020E1FC017E
S1130DB027830000DF91CF910895CF93DF93CDB7C0
S1130DC0DEB780E491E0FC01178280E491E021E049
S1130DD0FC01228B80E491E021E2FC01208B0000E5
S1130DE0DF91CF910895CF93DF9300D000D0CDB79A
S1130DF0DEB78B839C8319821A820CC00000809119
S1130E0000388823E1F31092003889819A81019691
S1130E1089839A8329813A818B819C812817390798
S1130E2068F300002496CDBFDEBFDF91CF91089513
S1130E305058BB27AA270E9430070C94A3080E948D
S1130E40950838F00E949C0820F039F49F3F19F46B
S1130E5026F40C9492080EF4E095E7FB0C948C08AD
S1130E60E92F0E94B40858F3BA176207730784077E
S1130E70950720F079F4A6F50C94D6080EF4E095C5
S1130E800B2EBA2FA02D0B01B90190010C01CA0140
S1130E90A0011124FF27591B99F0593F50F4503EEB
S1130EA068F11A16F040A22F232F342F4427585FDD
S1130EB0F3CF469537952795A795F0405395C9F7F5
S1130EC07EF41F16BA0B620B730B840BBAF09150AD
S1130ED0A1F0FF0FBB1F661F771F881FC2F70EC04C
S1130EE0BA0F621F731F841F48F48795779567951F
S1130EF0B795F7959E3F08F0B0CF9395880F08F00B
S1130F009927EE0F9795879508950E94680808F42D
S1130F1081E008950E949E070C94A3080E949C08F7
S1130F2058F00E94950840F029F45F3F29F00C9492
S1130F308C0851110C94D7080C9492080E94B408A0
S1130F4068F39923B1F3552391F3951B550BBB27F4
S1130F50AA2762177307840738F09F5F5F4F220F39
S1130F60331F441FAA1FA9F335D00E2E3AF0E0E830
S1130F7032D091505040E695001CCAF72BD0FE2F7A
S1130F8029D0660F771F881FBB1F2617370748070E
S1130F90AB07B0E809F0BB0B802DBF01FF279358C6
S1130FA05F4F3AF09E3F510578F00C948C080C94F6
S1130FB0D7085F3FE4F3983ED4F386957795679519
S1130FC0B795F7959F5FC9F7880F911D96958795FB
S1130FD097F90895E1E0660F771F881FBB1F62171A
S1130FE073078407BA0720F0621B730B840BBA0BD8
S1130FF0EE1F88F7E09508950E94BC0888F09F577B
S113100098F0B92F9927B751B0F0E1F0660F771F28
S1131010881F991F1AF0BA95C9F714C0B13091F01E
S11310200E94D608B1E008950C94D608672F782F53
S11310308827B85F39F0B93FCCF3869577956795E3
S1131040B395D9F73EF490958095709561957F4F4F
S11310508F4F9F4F0895E89409C097FB3EF49095F5
S11310608095709561957F4F8F4F9F4F9923A9F07D
S1131070F92F96E9BB279395F6958795779567950C
S1131080B795F111F8CFFAF4BB0F11F460FF1BC050
S11310906F5F7F4F8F4F9F4F16C0882311F096E9E3
S11310A011C0772321F09EE8872F762F05C0662391
S11310B071F096E8862F70E060E02AF09A95660F4A
S11310C0771F881FDAF7880F9695879597F9089503
S11310D0990F0008550FAA0BE0E8FEEF1616170645
S11310E0E807F907C0F012161306E407F50798F0AD
S11310F0621B730B840B950B39F40A2661F0232BC6
S1131100242B252B21F408950A2609F4A140A69541
S11311108FEF811D811D089597F99F6780E870E026
S113112060E008959FEF80EC089500240A94161659
S1131130170618060906089500240A9412161306C1
S1131140140605060895092E0394000C11F488234F
S113115052F0BB0F40F4BF2B11F460FF04C06F5F6B
S11311607F4F8F4F9F4F089557FD9058440F551F41
S113117059F05F3F71F04795880F97FB991F61F015
S11311809F3F79F087950895121613061406551F8C
S1131190F2CF4695F1DF08C0161617061806991FF8
S11311A0F1CF86957105610508940895E894BB27ED
S11311B066277727CB0197F908950E94680808F4F9
S11311C08FEF08950E94F5080C94A3080E949508D7
S11311D038F00E949C0820F0952311F00C948C08A0
S11311E00C94920811240C94D7080E94B40870F34C
S11311F0959FC1F3950F50E0551F629FF001729FB8
S1131200BB27F00DB11D639FAA27F00DB11DAA1FC6
S1131210649F6627B00DA11D661F829F2227B00D13
S1131220A11D621F739FB00DA11D621F839FA00D9E
S1131230611D221F749F3327A00D611D231F849FEE
S1131240600D211D822F762F6A2F11249F57504045
S11312509AF0F1F088234AF0EE0FFF1FBB1F661FC0
S1131260771F881F91505040A9F79E3F510580F089
S11312700C948C080C94D7085F3FE4F3983ED4F3A5
S1131280869577956795B795F795E7959F5FC1F72D
S1131290FE2B880F911D9695879597F90895A29F27
S11312A0B001B39FC001A39F700D811D1124911D36
S11312B0B29F700D811D1124911D0895F894FFCFE4
S11312C0001C222222221C000008180808081C0006
S11312D0001C020408101E00001C020C02021C0068
S11312E000040C141E040400001E101C02021C0046
S11312F0000C101C12120C00001E02040808080046
S1131300001C120C12121C00001C12120E020C0003
S113131000000000000000000000001E00000000AB
S11313200000000000000003000C120C000000008C
S1131330000E101010100E00000C120C0E10100EE7
S1131340422418FFFF182442000E1C38381C0F00DA
S9030000FC
